:03001600C2B5224E
:03001E00D2B52236
:1012C9009002B1ECF0A3EDF0EF9002B17008E0FEEE
:0F12D900A3E0FF020EACE0FEA3E0FF120F7622AF
:0D142800EF7005D2AFD28C22D2AFD28E224F
:09149F00EF7003C28C22C28E2200
:1011EF0090029FEBF0A3EAF0A3E9F0EF90029F705B
:1011FF000BE0FBA3E0FAA3E0F902144FE0FBA3E03E
:08120F00FAA3E0F912145B22BE
:0B147F00EF7007AE04AF05120FD9227A
:1011890090027CEBF0A3EAF0A3E9F090027CE0FB8B
:10119900A3E0FAA3E0F9120381601790027CA3E4AB
:1011A90075F001120478A9F0FA120381FF12000305
:0311B90080D922B8
:0F13FB00EF600BEFB40107A20292031214A822B5
:0B148A00EF6007EFB4010312146722AB
:100E460090027FEEF0A3EFF0A3EBF0A3EAF0A3E9A4
:010E5600F0AB
:100E5700E4900286F0A3F0900284E0FEA3E0FFA3F3
:100E6700E0FCA3E0FDC39FEC9E5039900280E02D8B
:100E7700FF90027FE03CFE121419900281E0FBA371
:100E8700E0FAA3E0F9900286E0FCA3E0F5828C8308
:100E9700EF1203D9900287E004F070BB900286E05E
:040EA70004F080B320
:010EAB002224
:100F1200900288EEF0A3EFF0A3EBF0A3EAF0A3E9CE
:010F2200F0DE
:100F2300E490028FF0A3F090028DE0FEA3E0FFA314
:100F3300E0FCA3E0FDC39FEC9E5037900289E02DB7
:100F4300FF900288E03CFE90028AE0FBA3E0FAA354
:100F5300E0F990028FA3E0F5828C8312039AFD12CD
:100F63001399900290E004F070BD90028FE004F0BA
:020F730080B547
:010F75002259
:08103A0090029AEEF0A3EFF022
:10104200121473E490029CF0A3F090029CE0FEA3C1
:10105200E0FFC3EE64809482502590029BE02FFF54
:1010620090029AE03EFE121419EFF46002D322902D
:10107200029DE004F070D390029CE004F080CBC3A8
:01108200224B
:0314BE000213D640
:100EAC009002B3EEF0A3EFF0438E805389F0758F70
:100EBC0001E025E0FF9002B3E033AB07FAE4F9F868
:100ECC00FF7E367D6E7C0112110FC3E49FFF8F8A6B
:100EDC009002B4E025E0FF9002B3E033AB07FAE4F4
:100EEC00F9F8FF7E367D6E7C0112110FC3E49FFF73
:100EFC00E49EFE74019DFDE49CFC78081205A68F0F
:060F0C008CC28DD2A92267
:0C144F009002A2EBF0A3EAF0A3E9F02267
:03000B00021217C7
:10121700C0E0C0F0C083C082C0D075D0089002A2E1
:10122700A3E0FAA3E0F9120617D0D0D082D083D07A
:04123700F0D0E032E1
:100F76009002B5EEF0A3EFF0438E4053890FE025C3
:100F8600E0FF9002B5E033AB07FAE4F9F8FF7E36EE
:100F96007D6E7C0112110FC3E49FFF8F8B9002B60A
:100FA600E025E0FF9002B5E033AB07FAE4F9F8FF7D
:100FB6007E367D6E7C0112110FC3E49FFFE49EFE18
:100FC60074019DFDE49CFC78081205A68F8DC28FE6
:030FD600D2AB2279
:0C145B009002A5EBF0A3EAF0A3E9F02258
:03001B0002123B93
:10123B00C0E0C0F0C083C082C0D075D0189002A5AA
:10124B00A3E0FAA3E0F9120617D0D0D082D083D056
:04125B00F0D0E032BD
:0512A7004202B7000047
:100FD90090027CEEF0A3EFF0759850438E01438E9A
:100FE9000490027CE0FEA3E0FBAA06E4F9F87F8006
:100FF9007E8D7D5BFC12110FEFF404F5D790027C16
:10100900E0FEA3E0FBAA06E4F9F87F807E8D7D5B14
:10101900FC12110FC3E49FFFE49EFE74019DFDE4E1
:101029009CFC78081205A68FD6438E10D2AFD2AC9D
:011039002294
:0300230002140ABA
:0E140A00309804C298C200309904C299C20101
:0114180032A1
:080003002001FDD2018F9922BA
:0A149500D2002000FDAF997E002276
:0914A800A203928AD2AAD2AF225B
:0C1467009002A8EBF0A3EAF0A3E9F02249
:030013000210CB0D
:1010CB00C0E0C0F0C083C082C0D075D000C000C0EB
:1010DB0001C002C003C004C005C006C0079002A82F
:1010EB00A3E0FAA3E0F9120617D007D006D005D07B
:1010FB0004D003D002D001D000D0D0D082D083D086
:04110B00F0D0E0320E
:0D13AE008FC4EEF5C375C65A75C6A57F0A3B
:0713BB00AE071FEE70FA22DD
:0D143500E4F5C7F5C5F5C675C380F5C42202
:0E14190075C78175C5011213AEAFC21214352E
:0114270022A2
:1013990075C78175C5028FC4EEF5C3AF058FC2123B
:0513A90013B30214352E
:0C14730075C78175C5031213AE02143555
:1012E800EF1FAA0670011E4A60107C137D88ED1D51
:0A12F800AA0470011C4A60E880F4AB
:0113020022C8
:1013D600759DFFE4F5BDED44884FF5BC7F027E00A8
:0313E6000212E808
:1011BC007401A807088002C333D8FCF59DEF44885E
:1011CC00F5BC7F027E001212E8E5BC30E4FB53BC98
:1011DC00EFAFBDEF75F004A4ADBE7C002DFFEC3578
:0211EC00F0FE13
:0111EE0022DE
:1012AC005002643031323334353637383961626349
:0312BC0064656600
:0714B100120003E4FEFF221C
:101153009002ABEBF0A3EAF0A3E9F09002ABE0FB63
:10116300A3E0FAA3E0F912038160179002ABA3E4B2
:1011730075F001120478A9F0FA120381FF1200033B
:0611830080D9E4FEFF220A
:060A6C009002021205BA1F
:100A720090020B1205C60000000090022F7401F0D4
:100A8200A37402F0A3742FF0E4A3F0A3F0A3F0A3E5
:100A9200F090022FE0FBA374FFF5F0120462A9F0BC
:100AA200FAE41203C7900202E0FCA3E0FDA3E0FE19
:100AB200A3E0FFEC339002025009A3A3A3E01205C6
:100AC20087800BE0FCA3E0FDA3E0FEA3E0FF900221
:100AD2000B1205BA900206E0FEA3E0FBAA06EA3377
:100AE20095E0F9F890020BE0FCA3E0FDA3E0FEA381
:100AF200E0FF1204F574642BF58274023AF583E088
:100B0200FF90022FE0FBA374FFF5F0120462A9F03C
:100B1200FAEF1203C7900233E004F070069002323B
:100B2200E004F090020BE0FCA3E0FDA3E0FEA3E0F2
:100B3200FFC006C007900206E0FEA3E0FBAA06EA99
:100B42003395E0F9F8D007D0061204F590020B12A3
:100B520005BAE4FBFAF9F8C31205956003020AD656
:100B6200900209E0FEA3E0FF4E605A900232E0FCE0
:100B7200A3E0FDC39FEE6480F8EC6480985046C306
:100B820090020AE09DFE900209E09C900234F0A3DC
:100B9200CEF0900234E07002A3E06029900208E0F7
:100BA200FF90022FE0FBA374FFF5F0120462A9F09C
:100BB200FAEF1203C7900235E024FFF0900234E00E
:100BC20034FFF080CD900202E0FCA3E0FDA3E0FE42
:100BD200A3E0FFEC33501590022FE0FBA374FFF566
:100BE200F0120462A9F0FA742D1203C790022FE0EA
:0A0BF200FBA3E0FAA3E0F91211538F
:010BFC0022D6
:0B064400900291EBF0A3EAF0A3E9F0B4
:10064F009002977420F0E4A3F0A3F0900291E0FBE6
:10065F00A3E0FAA3E0F9120381FF700302086864B4
:10066F00256004EF020854900292E475F001120421
:10067F0062900291E0FBA3E0FAA3E0F9120381B4C8
:10068F0030109002977430F0900292E475F00112DE
:10069F0004629002977420F0E4A3F0A3F09002910B
:1006AF00E0FBA3E0FAA3E0F9120381FFC364809497
:1006BF00B04047D3EF648094B9503F900298E0FE6A
:1006CF00A3E0FF7C007D0A1203FB900298EEF0A3DB
:1006DF00EFF0120381FF3395E0FEEF24D0FFEE34ED
:1006EF00FFFE900299E02FF0900298E03EF090020A
:1006FF0092E475F00112046280A3120381249D70AD
:10070F00030207FF24F4604624FC7003020822242E
:10071F00FE606824FD70030207B72414600302080B
:10072F0045900295E475F002120462900294E0FB8A
:10073F00A3E0FAA3E024FEF9EA34FFFA12048EFFD5
:10074F00AEF0EE3395E0FDFC900206E4805490028B
:10075F0095E475F002120462900294E0FBA3E0FAB4
:10076F00A3E024FEF9EA34FFFA12048EFFAEF0E4A0
:10077F00FCFD900206F0A374088058900295E47572
:10078F00F002120462900294E0FBA3E0FAA3E024CB
:10079F00FEF9EA34FFFA12048EFFAEF0E4FCFD908E
:1007AF000206F0A3740A802B900295E475F00212F2
:1007BF000462900294E0FBA3E0FAA3E024FEF9EABE
:1007CF0034FFFA12048EFFAEF0E4FCFD900206F047
:1007DF00A37410F0900297E0900208F0900298E056
:1007EF00FBA3E0900209CBF0A3EBF0120A6C805C44
:1007FF00900295E475F002120462900294E0FBA35C
:10080F00E0FAA3E024FEF9EA34FFFA12048EFFAEF9
:10081F00F08036900295E475F00412046290029411
:10082F00E0FBA3E0FAA3E024FCF9EA34FFFA120597
:10083F00F71211538016900291E0FBA3E0FAA3E0A8
:10084F00F9120381FF3395E0FE1214B1900292E486
:0C085F0075F00112046202065AE4FEFF6C
:01086B00226A
:0B108300900236EBF0A3EAF0A3E9F0C6
:10108E009002617401F0A37402F0A3743AF090021E
:10109E0061E0F9A3E0FAA3E0900294C9F0A3EAF0AC
:1010AE00A3E9F0900236E0FBA3E0FAA3E0F9120602
:0C10BE0044900261E4F0A3F0A3F0FEFFF8
:0110CA002203
:10130300D3EF9400EE9400400F7D187C55DCFEDD96
:08131300FAEF1F70EB1E80E8E9
:01131B0022AF
:1013C2001200167FE87E0312130312001E7FE87ECE
:0413D20003021303FC
:0912BF004202AE00004102B00041
:10125F009002AFE004F070069002AEE004F090024E
:10126F00AEE0B4030EA3E0B4E809E49002AEF0A33D
:03127F00F0B2B515
:011282002249
:101283009002B0E0FF6008758AE0758CB180067546
:101293008AC0758C63EF70047F0180027F00900227
:0312A300B0EFF0B9
:0112A6002225
:10131C007DF47C01E4FF1212C97BFF7A127983E41D
:09132C00FF1211EFE4FF02142886
:0D14420048456C6C6F20537463212121001C
:10133500D3EF9400EE9400400F7D187C55DCFEDD64
:08134500FAEF1F70EB1E80E8B7
:01134D00227D
:10134E007F807E25120FD97BFF7A14794212118984
:09135E007FE87E0312133580EED6
:0314C100B2B5229F
:1013E900C2027F011213FB7BFF7A1479C17F0102CC
:0213F900148A54
:10086C00000000000000000000000000000000007C
:10087C00000000000000000000000000000000006C
:10088C00000000000000000000000000000000005C
:10089C00000000000000000000000000000000004C
:1008AC00000000000000000000000000000000003C
:1008BC00000000000000000000000000000000002C
:1008CC00000000000000000000000000000000001C
:1008DC00000000000000000000000000000000000C
:1008EC0000000000000000000000000000000000FC
:1008FC0000000000000000000000000000000000EC
:10090C0000000000000000000000000000000000DB
:10091C0000000000000000000000000000000000CB
:10092C0000000000000000000000000000000000BB
:10093C0000000000000000000000000000000000AB
:10094C00000000000000000000000000000000009B
:10095C00000000000000000000000000000000008B
:10096C00000000000000000000000000000000007B
:10097C00000000000000000000000000000000006B
:10098C00000000000000000000000000000000005B
:10099C00000000000000000000000000000000004B
:1009AC00000000000000000000000000000000003B
:1009BC00000000000000000000000000000000002B
:1009CC00000000000000000000000000000000001B
:1009DC00000000000000000000000000000000000B
:1009EC0000000000000000000000000000000000FB
:1009FC0000000000000000000000000000000000EB
:100A0C0000000000000000000000000000000000DA
:100A1C0000000000000000000000000000000000CA
:100A2C0000000000000000000000000000000000BA
:100A3C0000000000000000000000000000000000AA
:100A4C00000000000000000000000000000000009A
:100A5C00000000000000000000000000000000008A
:10136700D3EF9400EE9400400F7D187C55DCFEDD32
:08137700FAEF1F70EB1E80E885
:01137F00224B
:100BFD0078007C007D017BFF7A08796C7E027F0096
:100C0D0012035B7D807C25E4FF12147F7F007E50F4
:100C1D0012103A5003020CF7E4900200F0A3F0908A
:100C2D000200E0FEA3E0FD2400F58274003EF58392
:100C3D00EDF0900201E004F07006900200E004F087
:100C4D00900200E0B402D8A3E0B400D37B017A0097
:100C5D00790090028D7402F0A3E4F0FF7E50120F24
:100C6D0012E4900200F0A3F0900200E0FEA3E0FF7A
:100C7D00C3EE64809482501C74002FF58274003E84
:100C8D00F583E4F0900201E004F070DC900200E0E6
:100C9D0004F080D47B017A0079009002847402F014
:100CAD00A3E4F0FF7E50120E46E4900200F0A3F094
:100CBD00900200E0FEA3E0FFC3EE64809482501F1B
:100CCD0074002FF58274003EF583E0FF120003904F
:100CDD000201E004F070D9900200E004F080D1B27E
:0A0CED00B57FF47E0112136780F555
:010CF70022DA
:0614B8000000000000002E
:10138000D3EF9400EE9400400F7D187C55DCFEDD19
:08139000FAEF1F70EB1E80E86C
:011398002232
:100CF800E4900274F0A3F078767C027D017BFF7AA1
:100D08001479B8FE7F0612035B7D807C25E4FF1210
:100D1800147FE4FF1211BC900274EEF0A3EFF09080
:100D28000274E0FCA3E0FDE41201D1E4FBFA79FAD5
:100D38007843120026E4FBFA7980784412012F12D6
:100D4800020A900274EEF0A3EFF0900274E0FAA3A6
:100D5800E0FB7C007D64FFAE0212040D7C007D0A7E
:100D680012040DED2430A3F0A3742EF07C007D0A4C
:100D7800AF03AE0212040D7C007D0A12040DED24AF
:100D880030A3F0900274E0FEA3E0FF7C007D0A121D
:100D9800040DED2430900279F0A37420F07B017AE1
:100DA800027976121189B2B57FF47E01121380029E
:020DB8000D1A12
:05000E00120CF880FE59
:10002600EC4D6011E8497017ED33EC3304600DE4D4
:10003600FCFFFEFD22E933E8330470F80202761273
:10004600024158046009E4CC248150062850090274
:10005600028028400302027DC0E0EB4A7044B9806A
:1000660006D0E0FB02026CEF4E701CBD8008EBFF71
:10007600EAFEE9FD80EBE98DF0A4FEE5F002010F52
:10008600E9CDF9EAFEEBFFEF89F0A4FCE5F0CE89B5
:10009600F0A42EFFE435F0CD89F0A42DFEE435F072
:1000A6008067EF4E7005BD80D780C3EF8BF0A4ACA0
:1000B600F0EE8BF0A42CFCE435F0F8EF8AF0A42CDB
:1000C600E5F038FCE433CB8DF0A42CFCE5F03BF8EE
:1000D600EE8AF0A42CFCE5F038F8E433CF89F0A4DE
:1000E6002CFCE5F038CF3400CE89F0A42FFFE5F0E4
:1000F6003EFEE433C98DF0A42EFEE5F039CD8AF03C
:10010600A42FFFE5F03EFEE43DFD33D0E0FB5007B3
:100116000BBB000F020280EC2CFCEF33FFEE33FE2C
:06012600ED33FD0202585A
:10012C00020280EC5D046005E8590470030202765B
:10013C00120241580460F6EC4860F2EC7004FDFECB
:10014C00FF22C860DB2481C85009C39860025006A6
:10015C0002027D9850CAF582E9294B4A7005AB82A0
:10016C0002026C75F0007C1A7880C3EF9BEE9AED5E
:10017C0099400DC3EF9BFFEE9AFEED99FDE842F01E
:10018C00DC23ACF0D0E0FFD0E0FED0E0FDAB822071
:10019C00E7101BEB60BAEC2CFCEF33FFEE33FEEDFB
:1001AC0033FD020258E803F830E705C0F075F000A3
:1001BC00EF2FFFEE33FEED33FD40B830E7C280AADF
:1001CC0075F020800E75F010800575F0087D007EAE
:1001DC00007F003392D530D503120587EC334010E5
:1001EC00EF33FFEE33FEED33FDEC33FCD5F0ED22B7
:0E01FC00E5F0247EA2D513CC92E7CDCEFF22F3
:10020A00EDD2E7CD33EC3392D524814006E4FFFEEC
:10021A00FDFC22FCE4CFCECDCC24E0501174FF804B
:10022A00EDC3CC13CCCD13CDCE13CECF13CF0470E8
:07023A00F030D5DE0205875C
:10024100E9D2E7C933E833F892D5EDD2E7CD33EC03
:0702510033FC5002B2D5227C
:10025800EC30E7100FBF000C0EBE00080DBD000407
:100268000BEB6014A2D5EB13FCED92E7FD2274FFB3
:10027800FCFDFEFF22E480F8A2D574FF13FC7D800C
:03028800E480EF20
:03000000020DBA34
:0C0DBA00787FE4F6D8FD758120020E0160
:10028B00E709F608DFFA8046E709F208DFFA803E55
:10029B0088828C83E709F0A3DFFA8032E309F60842
:1002AB00DFFA8078E309F208DFFA807088828C83AA
:1002BB00E309F0A3DFFA806489828A83E0A3F6085E
:1002CB00DFFA805889828A83E0A3F208DFFA804C38
:1002DB0080D280FA80C680D4806980F2803380100F
:1002EB0080A680EA809A80A880DA80E280CA803378
:1002FB0089828A83ECFAE493A3C8C582C8CCC583F0
:10030B00CCF0A3C8C582C8CCC583CCDFE9DEE780BF
:10031B000D89828A83E493A3F608DFF9ECFAA9F03E
:10032B00EDFB2289828A83ECFAE0A3C8C582C8CC94
:10033B00C583CCF0A3C8C582C8CCC583CCDFEADEAD
:10034B00E880DB89828A83E493A3F208DFF980CC0F
:10035B0088F0EF60010E4E60C388F0ED2402B40408
:10036B000050B9F582EB2402B4040050AF232345AF
:06037B0082239002DB73F7
:10038100BB010689828A83E0225002E722BBFE027A
:09039100E32289828A83E49322AD
:10039A00BB010CE58229F582E5833AF583E0225018
:1003AA0006E92582F8E622BBFE06E92582F8E22262
:0D03BA00E58229F582E5833AF583E493227C
:1003C700BB010689828A83F0225002F722BBFE0115
:0203D700F3220F
:1003D900F8BB010DE58229F582E5833AF583E8F05A
:1003E900225006E92582C8F622BBFE05E92582C806
:0203F900F222EE
:1003FB00EF8DF0A4A8F0CF8CF0A428CE8DF0A42E16
:02040B00FE22CF
:10040D00BC000BBE0029EF8DF084FFADF022E4CCD3
:10041D00F875F008EF2FFFEE33FEEC33FCEE9DEC9C
:10042D00984005FCEE9DFE0FD5F0E9E4CEFD22EDE2
:10043D00F8F5F0EE8420D21CFEADF075F008EF2F2C
:10044D00FFED33FD4007985006D5F0F222C398FD1D
:05045D000FD5F0EA22BA
:10046200C5F0F8A3E028F0C5F0F8E5821582700225
:060472001583E038F022C2
:10047800A3F8E0C5F025F0F0E58215827002158337
:06048800E0C838F0E82294
:10048E00BB010A89828A83E0F5F0A3E02250068739
:10049E00F009E71922BBFE07E3F5F009E3192289FB
:0B04AE00828A83E493F5F0740193222E
:1004B90075F008758200EF2FFFEE33FECD33CDCCFA
:1004C90033CCC58233C5829BED9AEC99E58298407D
:1004D9000CF582EE9BFEED9AFDEC99FC0FD5F0D65A
:1004E900E4CEFBE4CDFAE4CCF9A88222B800C1B984
:1004F9000059BA002DEC8BF084CFCECDFCE5F0CBC2
:10050900F97818EF2FFFEE33FEED33FDEC33FCEBFA
:1005190033FB10D703994004EB99FB0FD8E5E4F9B5
:10052900FA227818EF2FFFEE33FEED33FDEC33FCA2
:10053900C933C910D7059BE99A4007EC9BFCE99A96
:10054900F90FD8E0E4C9FAE4CCFB2275F010EF2FDB
:10055900FFEE33FEED33FDCC33CCC833C810D707DB
:100569009BEC9AE899400AED9BFDEC9AFCE899F816
:0E0579000FD5F0DAE4CDFBE4CCFAE4C8F922A9
:10110F00C2D5E830E70FB2D5E4C39BFBE49AFAE40B
:10111F0099F9E498F8EC30E717B2D512114512049B
:10112F00F5E4C39BFBE49AFAE499F9E498F8800399
:10113F001204F530D50DE4C39FFFE49EFEE49DFD40
:04114F00E49CFC22FE
:0E058700C3E49FFFE49EFEE49DFDE49CFC2285
:10059500EB9FF5F0EA9E42F0E99D42F0E89C45F0BC
:0105A5002233
:1005A600E86010ECA2E713FCED13FDEE13FEEF136B
:0405B600FFD8F02258
:0C05BA00ECF0A3EDF0A3EEF0A3EFF022B4
:1005C600A8828583F0D083D0821205DD1205DD1264
:1005D60005DD1205DDE473E493A3C583C5F0C58389
:1005E600C8C582C8F0A3C583C5F0C583C8C582C87F
:0105F60022E2
:1005F700BB010789828A830206265005E9F80206AD
:100607001DBBFE05E9F802062F89828A8302063898
:060617008A838982E4736E
:100DC60002000EE493A3F8E493A34003F68001F235
:100DD60008DFF48029E493A3F85407240CC8C3332E
:100DE600C4540F4420C8834004F456800146F6DFFD
:100DF600E4800B01020408102040809012A7E47ED4
:100E0600019360BCA3FF543F30E509541FFEE493F1
:100E1600A360010ECF54C025E060A840B8E493A3B8
:100E2600FAE493A3F8E493A3C8C582C8CAC583CAE3
:100E3600F0A3C8C582C8CAC583CADFE9DEE780BE9B
:0112C8000025
:09061D00E6FB08E6FA08E6F92202
:09062600E0FBA3E0FAA3E0F922D5
:09062F00E2FB08E2FA08E2F922FC
:0C063800E493FB740193FA740293F9221E
:00000001FF
