:03001600C2B5224E
:03001E00D2B52236
:1014FD009002BCECF0A3EDF0EF9002BC7008E0FEA2
:0F150D00A3E0FF021004E0FEA3E0FF1210CE22C5
:0D16A000EF7005D2AFD28C22D2AFD28E22D5
:09171700EF7003C28C22C28E2285
:101423009002AAEBF0A3EAF0A3E9F0EF9002AA700E
:101433000BE0FBA3E0FAA3E0F90216C7E0FBA3E08D
:08144300FAA3E0F91216D3220E
:0B16F700EF7007AE04AF0512113122A6
:1013BD0090027EEBF0A3EAF0A3E9F090027EE0FB51
:1013CD00A3E0FAA3E0F9120381601790027EA3E473
:1013DD0075F0011204AEA9F0FA120381FF12000399
:0313ED0080D92282
:0F167300EF600BEFB40107A202920312172022BF
:0B170200EF6007EFB401031216DF22B6
:100F9E00900282EEF0A3EFF0A3EBF0A3EAF0A3E948
:010FAE00F052
:100FAF00E4900289F0A3F0900287E0FEA3E0FFA394
:100FBF00E0FCA3E0FDC39FEC9E5039900283E02D2F
:100FCF00FF900282E03CFE121691900284E0FBA398
:100FDF00E0FAA3E0F9900289E0FCA3E0F5828C83AC
:100FEF00EF1203D990028AE004F070BB900289E0FF
:040FFF0004F080B3C7
:0110030022CA
:10106A0090028BEEF0A3EFF0A3EBF0A3EAF0A3E972
:01107A00F085
:10107B00E4900292F0A3F0900290E0FEA3E0FFA3B5
:10108B00E0FCA3E0FDC39FEC9E503790028CE02D5B
:10109B00FF90028BE03CFE90028DE0FBA3E0FAA3F5
:1010AB00E0F9900292A3E0F5828C8312039AFD1271
:1010BB0015FD900293E004F070BD900292E004F0F5
:0210CB0080B5EE
:0110CD002200
:0811DD009002A5EEF0A3EFF073
:1011E5001216EBE49002A7F0A3F09002A7E0FEA38D
:1011F500E0FFC3EE6480948250259002A6E02FFFA5
:101205009002A5E03EFE121691EFF46002D3229003
:1012150002A8E004F070D39002A7E004F080CBC3ED
:0112250022A6
:0317450002164E3B
:0317480002173154
:100F28001216261212267FCC12126F7F4412126FED
:100F38001216261212267FCC12126F7FBE12126F63
:100F480012119290027EEFF0121192EFFDD39407E6
:100F5800400EEFF4FF90027EE0F4F0E4A3F0800688
:100F680090027F7401F0ED7D00FC90027EE02DFD83
:100F7800E43CFC1201D1E4FBFA7920783F12002608
:100F880012020AAC06AD0790027FE0600122C3E4BA
:050F98009DFFE49CFE3A
:010F9D002231
:101004009002BEEEF0A3EFF0438E805389F0758F0B
:1010140001E025E0FF9002BEE033AB07FAE4F9F803
:10102400FF7E367D6E7C01121343C3E49FFF8F8ADB
:101034009002BFE025E0FF9002BEE033AB07FAE484
:10104400F9F8FF7E367D6E7C01121343C3E49FFFE3
:10105400E49EFE74019DFDE49CFC78081205DC8F7F
:061064008CC28DD2A9220E
:0C16C7009002ADEBF0A3EAF0A3E9F022E2
:03000B0002144B91
:10144B00C0E0C0F0C083C082C0D075D0089002ADA0
:10145B00A3E0FAA3E0F912064DD0D0D082D083D00E
:04146B00F0D0E032AB
:1010CE009002C0EEF0A3EFF0438E4053890FE0255F
:1010DE00E0FF9002C0E033AB07FAE4F9F8FF7E368A
:1010EE007D6E7C01121343C3E49FFF8F8B9002C170
:1010FE00E025E0FF9002C0E033AB07FAE4F9F8FF19
:10110E007E367D6E7C01121343C3E49FFFE49EFE88
:10111E0074019DFDE49CFC78081205DC8F8DC28F56
:03112E00D2AB221F
:0C16D3009002B0EBF0A3EAF0A3E9F022D3
:03001B0002146F5D
:10146F00C0E0C0F0C083C082C0D075D0189002B069
:10147F00A3E0FAA3E0F912064DD0D0D082D083D0EA
:04148F00F0D0E03287
:0514DB004202C2000006
:1011310090027EEEF0A3EFF0759850438E01438E3E
:101141000490027EE0FEA3E0FBAA06E4F9F87F80AA
:101151007E8D7D5BFC121343EFF404F5D790027E84
:10116100E0FEA3E0FBAA06E4F9F87F807E8D7D5BBB
:10117100FC121343C3E49FFFE49EFE74019DFDE452
:101181009CFC78081205DC8FD6438E10D2AFD2AC0E
:01119100223B
:0300230002168240
:0E168200309804C298C200309904C299C20187
:011690003227
:080003002001FDD2018F9922BA
:0A170D00D2002000FDAF997E0022FB
:09172000A203928AD2AAD2AF22E0
:0C16DF009002B3EBF0A3EAF0A3E9F022C4
:030013000212FFD7
:1012FF00C0E0C0F0C083C082C0D075D000C000C0B5
:10130F0001C002C003C004C005C006C0079002B3ED
:10131F00A3E0FAA3E0F912064DD007D006D005D00E
:10132F0004D003D002D001D000D0D0D082D083D04F
:04133F00F0D0E032D8
:0D1612008FC4EEF5C375C65A75C6A57F0AD4
:07161F00AE071FEE70FA2276
:0D16AD00E4F5C7F5C5F5C675C380F5C42288
:0E16910075C78175C501121612AFC21216ADD3
:01169F002228
:1015FD0075C78175C5028FC4EEF5C3AF058FC212D5
:05160D0016170216ADE6
:0C16EB0075C78175C5031216120216ADFA
:10151C00EF1FAA0670011E4A60107C137D88ED1D1A
:0A152C00AA0470011C4A60E880F474
:011536002292
:10164E00759DFFE4F5BDED44884FF5BC7F027E002D
:03165E0002151C56
:1013F0007401A807088002C333D8FCF59DEF448828
:10140000F5BC7F027E0012151CE5BC30E4FB53BC2A
:10141000EFAFBDEF75F004A4ADBE7C002DFFEC3541
:02142000F0FEDC
:0114220022A7
:10162600D293C2937F647E001215E6D2937F047E26
:04163600000215E6B3
:10122600E4900280F0309315900280E0C394285039
:101236000CE004F07F017E001215E680E8E49002DF
:1012460080F0209315900280E0C3942D500CE004AA
:10125600F07F017E001215E680E8900280E0C394DC
:081266002D40037F01227F00EF
:01126E00225D
:061731001216261212261A
:01173700228F
:05126F00900280EFF089
:10127400A37408F0900280E0FF5401FEEFC313F062
:10128400AF06EF600FC2937F017E001215E6D29382
:101294007F0C800DC2937F0C7E001215E6D2937FE3
:1012A400017E001215E6900281E014F0E0D3940070
:0212B40050C226
:0112B6002215
:10119200E4900281F09002807408F0D29390028170
:1011A200E0C313F0C2937F027E001215E6D2937F52
:1011B200047E001215E6309307900281E04480F02D
:1011C2007F087E001215E6900280E014F0E0D394CE
:0A11D2000050C8D293900281E0FFA4
:0111DC0022F0
:1014E0005002643031323334353637383961626313
:0314F000646566CA
:07173800120003E4FEFF2292
:101387009002B6EBF0A3EAF0A3E9F09002B6E0FB17
:10139700A3E0FAA3E0F912038160179002B6A3E471
:1013A70075F0011204AEA9F0FA120381FF120003CF
:0613B70080D9E4FEFF22D4
:060AA2009002021205F0B3
:100AA80090020B1205FC0000000090022F7401F068
:100AB800A37402F0A3742FF0E4A3F0A3F0A3F0A3AF
:100AC800F090022FE0FBA374FFF5F0120498A9F050
:100AD800FAE41203C7900202E0FCA3E0FDA3E0FEE3
:100AE800A3E0FFEC339002025009A3A3A3E0120590
:100AF800BD800BE0FCA3E0FDA3E0FEA3E0FF9002B5
:100B08000B1205F0900206E0FEA3E0FBAA06EA330A
:100B180095E0F9F890020BE0FCA3E0FDA3E0FEA34A
:100B2800E0FF12052B74642BF58274023AF583E01A
:100B3800FF90022FE0FBA374FFF5F0120498A9F0D0
:100B4800FAEF1203C7900233E004F0700690023205
:100B5800E004F090020BE0FCA3E0FDA3E0FEA3E0BC
:100B6800FFC006C007900206E0FEA3E0FBAA06EA63
:100B78003395E0F9F8D007D00612052B90020B1236
:100B880005F0E4FBFAF9F8C31205CB6003020B0C7D
:100B9800900209E0FEA3E0FF4E605A900232E0FCAA
:100BA800A3E0FDC39FEE6480F8EC6480985046C3D0
:100BB80090020AE09DFE900209E09C900234F0A3A6
:100BC800CEF0900234E07002A3E06029900208E0C1
:100BD800FF90022FE0FBA374FFF5F0120498A9F030
:100BE800FAEF1203C7900235E024FFF0900234E0D8
:100BF80034FFF080CD900202E0FCA3E0FDA3E0FE0C
:100C0800A3E0FFEC33501590022FE0FBA374FFF52F
:100C1800F0120498A9F0FA742D1203C790022FE07D
:0A0C2800FBA3E0FAA3E0F912138722
:010C3200229F
:0B067A00900294EBF0A3EAF0A3E9F07B
:1006850090029A7420F0E4A3F0A3F0900294E0FBAA
:10069500A3E0FAA3E0F9120381FF700302089E6448
:1006A500256004EF02088A900295E475F0011204B2
:1006B50098900294E0FBA3E0FAA3E0F9120381B459
:1006C500301090029A7430F0900295E475F00112A2
:1006D500049890029A7420F0E4A3F0A3F090029499
:1006E500E0FBA3E0FAA3E0F9120381FFC364809461
:1006F500B04047D3EF648094B9503F90029BE0FE31
:10070500A3E0FF7C007D0A1203FB90029BEEF0A3A1
:10071500EFF0120381FF3395E0FEEF24D0FFEE34B6
:10072500FFFE90029CE02FF090029BE03EF09002CD
:1007350095E475F00112049880A3120381249D703D
:100745000302083524F4604624FC7003020858248B
:10075500FE606824FD70030207ED2414600302089F
:100765007B900298E475F002120498900297E0FBE2
:10077500A3E0FAA3E024FEF9EA34FFFA1204C4FF69
:10078500AEF0EE3395E0FDFC900206E48054900255
:1007950098E475F002120498900297E0FBA3E0FA42
:1007A500A3E024FEF9EA34FFFA1204C4FFAEF0E434
:1007B500FCFD900206F0A374088058900298E47539
:1007C500F002120498900297E0FBA3E0FAA3E0245C
:1007D500FEF9EA34FFFA1204C4FFAEF0E4FCFD9022
:1007E5000206F0A3740A802B900298E475F00212B9
:1007F5000498900297E0FBA3E0FAA3E024FEF9EA4F
:1008050034FFFA1204C4FFAEF0E4FCFD900206F0DA
:10081500A37410F090029AE0900208F090029BE019
:10082500FBA3E0900209CBF0A3EBF0120AA2805CD7
:10083500900298E475F002120498900297E0FBA3E9
:10084500E0FAA3E024FEF9EA34FFFA1204C4FFAE8D
:10085500F08036900298E475F0041204989002979F
:10086500E0FBA3E0FAA3E024FCF9EA34FFFA120660
:100875002D1213878016900294E0FBA3E0FAA3E003
:10088500F9120381FF3395E0FE121738900295E4C3
:0C08950075F001120498020690E4FEFFCA
:0108A1002234
:0B12B700900236EBF0A3EAF0A3E9F090
:1012C2009002617401F0A37402F0A3743AF09002E8
:1012D20061E0F9A3E0FAA3E0900297C9F0A3EAF073
:1012E200A3E9F0900236E0FBA3E0FAA3E0F91206CC
:0C12F2007A900261E4F0A3F0A3F0FEFF8C
:0112FE0022CD
:1015E600D3EF9400EE9400400D00007D1BDDFEEF6E
:0615F6001F70ED1E80EAEB
:0115FC0022CC
:10153700D3EF9400EE9400400F7D187C55DCFEDD60
:08154700FAEF1F70EB1E80E8B3
:01154F002279
:10155000D3EF9400EE9400400F7D187C55DCFEDD47
:08156000FAEF1F70EB1E80E89A
:011568002260
:10163A001200167FE87E0312155012001E7FE87E04
:04164A000302155032
:0914F3004202B900004102BB00F5
:101493009002BAE004F070069002B9E004F0900202
:1014A300B9E0B4030EA3E0B4E809E49002B9F0A3F1
:0314B300F0B2B5DF
:0114B6002213
:1014B7009002BBE0FF6008758AE0758CB180067505
:1014C7008AC0758C63EF70047F0180027F009002F1
:0314D700BBEFF078
:0114DA0022EF
:101569007DF47C01E4FF1214FD7BFF7A1479B7E462
:09157900FF121423E4FF0216A086
:0D16BA0048456C6C6F2053746321212100A2
:10158200D3EF9400EE9400400F7D187C55DCFEDD15
:08159200FAEF1F70EB1E80E868
:01159A00222E
:10159B007F807E251211317BFF7A1679BA1213BD2B
:0915AB007FE87E0312158280EE38
:03174B00B2B52212
:10166100C2027F011216737BFF7A17794B7F010249
:0216710017025E
:1008A2000000000000000000000000000000000046
:1008B2000000000000000000000000000000000036
:1008C2000000000000000000000000000000000026
:1008D2000000000000000000000000000000000016
:1008E2000000000000000000000000000000000006
:1008F20000000000000000000000000000000000F6
:1009020000000000000000000000000000000000E5
:1009120000000000000000000000000000000000D5
:1009220000000000000000000000000000000000C5
:1009320000000000000000000000000000000000B5
:1009420000000000000000000000000000000000A5
:100952000000000000000000000000000000000095
:100962000000000000000000000000000000000085
:100972000000000000000000000000000000000075
:100982000000000000000000000000000000000065
:100992000000000000000000000000000000000055
:1009A2000000000000000000000000000000000045
:1009B2000000000000000000000000000000000035
:1009C2000000000000000000000000000000000025
:1009D2000000000000000000000000000000000015
:1009E2000000000000000000000000000000000005
:1009F20000000000000000000000000000000000F5
:100A020000000000000000000000000000000000E4
:100A120000000000000000000000000000000000D4
:100A220000000000000000000000000000000000C4
:100A320000000000000000000000000000000000B4
:100A420000000000000000000000000000000000A4
:100A52000000000000000000000000000000000094
:100A62000000000000000000000000000000000084
:100A72000000000000000000000000000000000074
:100A82000000000000000000000000000000000064
:100A92000000000000000000000000000000000054
:1015B400D3EF9400EE9400400F7D187C55DCFEDDE3
:0815C400FAEF1F70EB1E80E836
:0115CC0022FC
:100C330078007C007D017BFF7A0879A27E027F0029
:100C430012035B7D807C25E4FF1216F77F007E5044
:100C53001211DD5003020D2DE4900200F0A3F09079
:100C63000200E0FEA3E0FD2400F58274003EF5835C
:100C7300EDF0900201E004F07006900200E004F051
:100C8300900200E0B402D8A3E0B400D37B017A0061
:100C930079009002907402F0A3E4F0FF7E501210EA
:100CA3006AE4900200F0A3F0900200E0FEA3E0FFEC
:100CB300C3EE64809482501C74002FF58274003E4E
:100CC300F583E4F0900201E004F070DC900200E0B0
:100CD30004F080D47B017A0079009002877402F0DB
:100CE300A3E4F0FF7E50120F9EE4900200F0A3F005
:100CF300900200E0FEA3E0FFC3EE64809482501FE5
:100D030074002FF58274003EF583E0FF1200039018
:100D13000201E004F070D9900200E004F080D1B247
:0A0D2300B57FF47E011215B480F5CF
:010D2D0022A3
:06173F00000000000000A4
:1015CD00D3EF9400EE9400400F7D187C55DCFEDDCA
:0815DD00FAEF1F70EB1E80E81D
:0115E50022E3
:100D2E00E490029DF0A3F0789F7C027D017BFF7A18
:100D3E0017793FFE7F0612035B7D807C25E4FF1250
:100D4E0016F7E4FF1213F090029DEEF0A3EFF09071
:100D5E00029DE0FCA3E0FDE41201D1E4FBFA79FA76
:100D6E007843120026E4FBFA7980784412012F12A0
:100D7E00020A90029DEEF0A3EFF090029DE0FAA31E
:100D8E00E0FB7C007D64FFAE0212040D7C007D0A48
:100D9E0012040DED2430A3F0A3742EF07C007D0A16
:100DAE00AF03AE0212040D7C007D0A12040DED2479
:100DBE0030A3F090029DE0FEA3E0FF7C007D0A12BE
:100DCE00040DED24309002A2F0A37420F07B017A82
:100DDE0002799F1213BDB2B57FF47E011215CD02BA
:020DEE000D50A6
:081729000000000000000000B8
:100DF00078767C027D017BFF7A1779297E007F0857
:100E000012035B7D807C25E4FF1216F7121748124F
:100E10000F28900274EEF0A3EFF0C3EE648094808C
:100E20005006A3742DF080069002767420F0900294
:100E300074E0FAA3E0FB7C007D64FFAE0212046262
:100E40007C007D0A120462ED2430900277F0A374D6
:100E50002EF07C007D0AAF03AE021204627C007D9E
:100E60000A120462ED2430A3F0900274E0FEA3E0C5
:100E7000FF7C007D0A120462ED243090027AF0A318
:100E8000740DF0A3740AF07B017A0279761213BD17
:0C0E9000B2B57FF47E01121537020E0F80
:05000E00120DF080FE60
:10002600EC4D6011E8497017ED33EC3304600DE4D4
:10003600FCFFFEFD22E933E8330470F80202761273
:10004600024158046009E4CC248150062850090274
:10005600028028400302027DC0E0EB4A7044B9806A
:1000660006D0E0FB02026CEF4E701CBD8008EBFF71
:10007600EAFEE9FD80EBE98DF0A4FEE5F002010F52
:10008600E9CDF9EAFEEBFFEF89F0A4FCE5F0CE89B5
:10009600F0A42EFFE435F0CD89F0A42DFEE435F072
:1000A6008067EF4E7005BD80D780C3EF8BF0A4ACA0
:1000B600F0EE8BF0A42CFCE435F0F8EF8AF0A42CDB
:1000C600E5F038FCE433CB8DF0A42CFCE5F03BF8EE
:1000D600EE8AF0A42CFCE5F038F8E433CF89F0A4DE
:1000E6002CFCE5F038CF3400CE89F0A42FFFE5F0E4
:1000F6003EFEE433C98DF0A42EFEE5F039CD8AF03C
:10010600A42FFFE5F03EFEE43DFD33D0E0FB5007B3
:100116000BBB000F020280EC2CFCEF33FFEE33FE2C
:06012600ED33FD0202585A
:10012C00020280EC5D046005E8590470030202765B
:10013C00120241580460F6EC4860F2EC7004FDFECB
:10014C00FF22C860DB2481C85009C39860025006A6
:10015C0002027D9850CAF582E9294B4A7005AB82A0
:10016C0002026C75F0007C1A7880C3EF9BEE9AED5E
:10017C0099400DC3EF9BFFEE9AFEED99FDE842F01E
:10018C00DC23ACF0D0E0FFD0E0FED0E0FDAB822071
:10019C00E7101BEB60BAEC2CFCEF33FFEE33FEEDFB
:1001AC0033FD020258E803F830E705C0F075F000A3
:1001BC00EF2FFFEE33FEED33FD40B830E7C280AADF
:1001CC0075F020800E75F010800575F0087D007EAE
:1001DC00007F003392D530D5031205BDEC334010AF
:1001EC00EF33FFEE33FEED33FDEC33FCD5F0ED22B7
:0E01FC00E5F0247EA2D513CC92E7CDCEFF22F3
:10020A00EDD2E7CD33EC3392D524814006E4FFFEEC
:10021A00FDFC22FCE4CFCECDCC24E0501174FF804B
:10022A00EDC3CC13CCCD13CDCE13CECF13CF0470E8
:07023A00F030D5DE0205BD26
:10024100E9D2E7C933E833F892D5EDD2E7CD33EC03
:0702510033FC5002B2D5227C
:10025800EC30E7100FBF000C0EBE00080DBD000407
:100268000BEB6014A2D5EB13FCED92E7FD2274FFB3
:10027800FCFDFEFF22E480F8A2D574FF13FC7D800C
:03028800E480EF20
:03000000020E9C51
:0C0E9C00787FE4F6D8FD758120020EE39B
:10028B00E709F608DFFA8046E709F208DFFA803E55
:10029B0088828C83E709F0A3DFFA8032E309F60842
:1002AB00DFFA8078E309F208DFFA807088828C83AA
:1002BB00E309F0A3DFFA806489828A83E0A3F6085E
:1002CB00DFFA805889828A83E0A3F208DFFA804C38
:1002DB0080D280FA80C680D4806980F2803380100F
:1002EB0080A680EA809A80A880DA80E280CA803378
:1002FB0089828A83ECFAE493A3C8C582C8CCC583F0
:10030B00CCF0A3C8C582C8CCC583CCDFE9DEE780BF
:10031B000D89828A83E493A3F608DFF9ECFAA9F03E
:10032B00EDFB2289828A83ECFAE0A3C8C582C8CC94
:10033B00C583CCF0A3C8C582C8CCC583CCDFEADEAD
:10034B00E880DB89828A83E493A3F208DFF980CC0F
:10035B0088F0EF60010E4E60C388F0ED2402B40408
:10036B000050B9F582EB2402B4040050AF232345AF
:06037B0082239002DB73F7
:10038100BB010689828A83E0225002E722BBFE027A
:09039100E32289828A83E49322AD
:10039A00BB010CE58229F582E5833AF583E0225018
:1003AA0006E92582F8E622BBFE06E92582F8E22262
:0D03BA00E58229F582E5833AF583E493227C
:1003C700BB010689828A83F0225002F722BBFE0115
:0203D700F3220F
:1003D900F8BB010DE58229F582E5833AF583E8F05A
:1003E900225006E92582C8F622BBFE05E92582C806
:0203F900F222EE
:1003FB00EF8DF0A4A8F0CF8CF0A428CE8DF0A42E16
:02040B00FE22CF
:10040D00BC000BBE0029EF8DF084FFADF022E4CCD3
:10041D00F875F008EF2FFFEE33FEEC33FCEE9DEC9C
:10042D00984005FCEE9DFE0FD5F0E9E4CEFD22EDE2
:10043D00F8F5F0EE8420D21CFEADF075F008EF2F2C
:10044D00FFED33FD4007985006D5F0F222C398FD1D
:05045D000FD5F0EA22BA
:10046200C2D5EC30E709B2D5E4C39DFDE49CFCEEB5
:1004720030E715B2D5E4C39FFFE49EFE12040DC31C
:10048200E49DFDE49CFC800312040D30D507C3E417
:060492009FFFE49EFE2224
:10049800C5F0F8A3E028F0C5F0F8E58215827002EF
:0604A8001583E038F0228C
:1004AE00A3F8E0C5F025F0F0E58215827002158301
:0604BE00E0C838F0E8225E
:1004C400BB010A89828A83E0F5F0A3E02250068703
:1004D400F009E71922BBFE07E3F5F009E3192289C5
:0B04E400828A83E493F5F074019322F8
:1004EF0075F008758200EF2FFFEE33FECD33CDCCC4
:1004FF0033CCC58233C5829BED9AEC99E582984047
:10050F000CF582EE9BFEED9AFDEC99FC0FD5F0D623
:10051F00E4CEFBE4CDFAE4CCF9A88222B800C1B94D
:10052F000059BA002DEC8BF084CFCECDFCE5F0CB8B
:10053F00F97818EF2FFFEE33FEED33FDEC33FCEBC4
:10054F0033FB10D703994004EB99FB0FD8E5E4F97F
:10055F00FA227818EF2FFFEE33FEED33FDEC33FC6C
:10056F00C933C910D7059BE99A4007EC9BFCE99A60
:10057F00F90FD8E0E4C9FAE4CCFB2275F010EF2FA5
:10058F00FFEE33FEED33FDCC33CCC833C810D707A5
:10059F009BEC9AE899400AED9BFDEC9AFCE899F8E0
:0E05AF000FD5F0DAE4CDFBE4CCFAE4C8F92273
:10134300C2D5E830E70FB2D5E4C39BFBE49AFAE4D5
:1013530099F9E498F8EC30E717B2D512137912052E
:101363002BE4C39BFBE49AFAE499F9E498F880032D
:1013730012052B30D50DE4C39FFFE49EFEE49DFDD3
:04138300E49CFC22C8
:0E05BD00C3E49FFFE49EFEE49DFDE49CFC224F
:1005CB00EB9FF5F0EA9E42F0E99D42F0E89C45F086
:0105DB0022FD
:1005DC00E86010ECA2E713FCED13FDEE13FEEF1335
:0405EC00FFD8F02222
:0C05F000ECF0A3EDF0A3EEF0A3EFF0227E
:1005FC00A8828583F0D083D08212061312061312C0
:10060C000613120613E473E493A3C583C5F0C583E4
:10061C00C8C582C8F0A3C583C5F0C583C8C582C848
:01062C0022AB
:10062D00BB010789828A8302065C5005E9F8020640
:10063D0053BBFE05E9F802066589828A8302066EC0
:06064D008A838982E47338
:100EA80002000EE493A3F8E493A34003F68001F252
:100EB80008DFF48029E493A3F85407240CC8C3334B
:100EC800C4540F4420C8834004F456800146F6DF1A
:100ED800E4800B01020408102040809014DBE47EBB
:100EE800019360BCA3FF543F30E509541FFEE4930F
:100EF800A360010ECF54C025E060A840B8E493A3D6
:100F0800FAE493A3F8E493A3C8C582C8CAC583CA00
:100F1800F0A3C8C582C8CAC583CADFE9DEE780BEB8
:0114FC0000EF
:09065300E6FB08E6FA08E6F922CC
:09065C00E0FBA3E0FAA3E0F9229F
:09066500E2FB08E2FA08E2F922C6
:0C066E00E493FB740193FA740293F922E8
:00000001FF
