:03001E00C2B52246
:0313FF00D2B52242
:10121000900293ECF0A3EDF0EF9002937008E0FEE3
:0F122000A3E0FF020D95E0FEA3E0FF120E5F2298
:0D136F00EF7005D2AFD28C22D2AFD28E2209
:0913E600EF7003C28C22C28E22BA
:10113600900281EBF0A3EAF0A3E9F0EF9002817050
:101146000BE0FBA3E0FAA3E0F9021396E0FBA3E0B1
:08115600FAA3E0F91213A22232
:0B13C600EF7007AE04AF05120EC2224C
:1010D000900284EBF0A3EAF0A3E9F0900284E0FB35
:1010E000A3E0FAA3E0F91203816017900284A3E45D
:1010F00075F001120423A9F0FA120381FF12000314
:0311000080D92271
:0F134200EF600BEFB40107A20292031213EF2228
:0B13D100EF6007EFB401031213AE221F
:100D2F0090026AEEF0A3EFF0A3EBF0A3EAF0A3E9D1
:010D3F00F0C3
:100D4000E4900271F0A3F090026FE0FEA3E0FFA335
:100D5000E0FCA3E0FDC39FEC9E503990026BE02DB8
:100D6000FF90026AE03CFE12136090026CE0FBA36D
:100D7000E0FAA3E0F9900271E0FCA3E0F5828C8335
:100D8000EF1203D9900272E004F070BB900271E0A0
:040D900004F080B338
:010D9400223C
:100DFB00900273EEF0A3EFF0A3EBF0A3EAF0A3E9FC
:010E0B00F0F6
:100E0C00E490027AF0A3F0900278E0FEA3E0FFA356
:100E1C00E0FCA3E0FDC39FEC9E5037900274E02DE4
:100E2C00FF900273E03CFE900275E0FBA3E0FAA396
:100E3C00E0F990027AA3E0F5828C8312039AFD12FA
:100E4C0012E090027BE004F070BD90027AE004F0B6
:020E5C0080B55F
:010E5E002271
:080F810090027CEEF0A3EFF0FA
:100F89001213BAE490027EF0A3F090027EE0FEA371
:100F9900E0FFC3EE64809482502590027DE02FFF2C
:100FA90090027CE03EFE121360EFF46002D32290BF
:100FB900027FE004F070D390027EE004F080CBC39E
:010FC9002205
:0314020002131DB5
:100D9500900295EEF0A3EFF0438E805389F0758FA6
:100DA50001E025E0FF900295E033AB07FAE4F9F89E
:100DB500FF7E367D6E7C01121056C3E49FFF8F8A3D
:100DC500900296E025E0FF900295E033AB07FAE448
:100DD500F9F8FF7E367D6E7C01121056C3E49FFF45
:100DE500E49EFE74019DFDE49CFC78081205518F7C
:060DF5008CC28DD2A92280
:0C139600900287EBF0A3EAF0A3E9F0223C
:03000B0002115E81
:10115E00C0E0C0F0C083C082C0D075D008900287B6
:10116E00A3E0FAA3E0F91205C2D0D0D082D083D08A
:04117E00F0D0E0329B
:100E5F00900297EEF0A3EFF0438E4053890FE025F9
:100E6F00E0FF900297E033AB07FAE4F9F8FF7E3624
:100E7F007D6E7C01121056C3E49FFF8F8B900298FA
:100E8F00E025E0FF900297E033AB07FAE4F9F8FFB3
:100E9F007E367D6E7C01121056C3E49FFFE49EFEEA
:100EAF0074019DFDE49CFC78081205518F8DC28F53
:030EBF00D2AB2291
:0C13A20090028AEBF0A3EAF0A3E9F0222D
:03001B000211824D
:10118200C0E0C0F0C083C082C0D075D01890028A7F
:10119200A3E0FAA3E0F91205C2D0D0D082D083D066
:0411A200F0D0E03277
:0511EE0042029900001F
:100EC200900204EEF0A3EFF0759850438E01438E2A
:100ED20004900204E0FEA3E0FBAA06E4F9F87F8096
:100EE2007E8D7D5BFC121056EFF404F5D790020460
:100EF200E0FEA3E0FBAA06E4F9F87F807E8D7D5B2D
:100F0200FC121056C3E49FFFE49EFE74019DFDE4B3
:100F12009CFC78081205518FD6438E10D2AFD2AC0A
:010F220022AC
:0300230002135174
:0E135100309804C298C200309904C299C201BB
:01135F00325B
:080003002001FDD2018F9922BA
:0A13DC00D2002000FDAF997E002230
:0913EF00A203928AD2AAD2AF2215
:0C13AE0090028DEBF0A3EAF0A3E9F0221E
:03001300021012C6
:10101200C0E0C0F0C083C082C0D075D000C000C0A4
:1010220001C002C003C004C005C006C00790028D03
:10103200A3E0FAA3E0F91205C2D007D006D005D08A
:1010420004D003D002D001D000D0D0D082D083D03F
:04105200F0D0E032C8
:0D12F5008FC4EEF5C375C65A75C6A57F0AF5
:07130200AE071FEE70FA2296
:0D137C00E4F5C7F5C5F5C675C380F5C422BC
:0E13600075C78175C5011212F5AFC212137C5C
:01136E00225C
:1012E00075C78175C5028FC4EEF5C3AF058FC212F5
:0512F00012FA02137C5C
:0C13BA0075C78175C5031212F502137C83
:10122F00EF1FAA0670011E4A60107C137D88ED1D0A
:0A123F00AA0470011C4A60E880F464
:011249002282
:10131D00759DFFE4F5BDED44884FF5BC7F027E0061
:03132D0002122F7A
:101103007401A807088002C333D8FCF59DEF448817
:10111300F5BC7F027E0012122FE5BC30E4FB53BC0A
:10112300EFAFBDEF75F004A4ADBE7C002DFFEC3531
:02113300F0FECC
:011135002297
:1011F30050025A303132333435363738396162630D
:03120300646566B9
:0713F800120003E4FEFF22D6
:10109A00900257EBF0A3EAF0A3E9F0900257E0FBC5
:1010AA00A3E0FAA3E0F91203816017900257A3E4C0
:1010BA0075F001120423A9F0FA120381FF1200034A
:0610CA0080D9E4FEFF22C4
:060A170090023B12056590
:100A1D00900244120571000000009002507401F024
:100A2D00A37402F0A37450F0E4A3F0A3F0A3F0A319
:100A3D00F0900250E0FBA374FFF5F012040DA9F045
:100A4D00FAE41203C790023BE0FCA3E0FDA3E0FE35
:100A5D00A3E0FFEC3390023B5009A3A3A3E01205E2
:100A6D0032800BE0FCA3E0FDA3E0FEA3E0FF9002CB
:100A7D004412056590023FE0FEA3E0FBAA06EA33AF
:100A8D0095E0F9F8900244E0FCA3E0FDA3E0FEA39D
:100A9D00E0FF1204A0745A2BF58274023AF583E03C
:100AAD00FF900250E0FBA374FFF5F012040DA9F0C6
:100ABD00FAEF1203C7900254E004F070069002534F
:100ACD00E004F0900244E0FCA3E0FDA3E0FEA3E00F
:100ADD00FFC006C00790023FE0FEA3E0FBAA06EAB6
:100AED003395E0F9F8D007D0061204A09002441215
:100AFD000565E4FBFAF9F8C31205406003020A81AB
:100B0D00900242E0FEA3E0FF4E605A900253E0FCDB
:100B1D00A3E0FDC39FEE6480F8EC6480985046C35B
:100B2D00900243E09DFE900242E09C900255F0A39E
:100B3D00CEF0900255E07002A3E06029900241E0F2
:100B4D00FF900250E0FBA374FFF5F012040DA9F025
:100B5D00FAEF1203C7900256E024FFF0900255E021
:100B6D0034FFF080CD90023BE0FCA3E0FDA3E0FE5E
:100B7D00A3E0FFEC335015900250E0FBA374FFF59A
:100B8D00F012040DA9F0FA742D1203C7900250E073
:0A0B9D00FBA3E0FAA3E0F912109A9E
:010BA700222B
:0B05EF00900232EBF0A3EAF0A3E9F069
:1005FA009002387420F0E4A3F0A3F0900232E0FBFA
:10060A00A3E0FAA3E0F9120381FF7003020813645E
:10061A00256004EF0207FF900233E475F00112042B
:10062A000D900232E0FBA3E0FAA3E0F9120381B4D1
:10063A0030109002387430F0900233E475F00112F1
:10064A00040D9002387420F0E4A3F0A3F090023273
:10065A00E0FBA3E0FAA3E0F9120381FFC3648094EC
:10066A00B04047D3EF648094B9503F900239E0FE1E
:10067A00A3E0FF7C007D0A1203FB900239EEF0A38F
:10068A00EFF0120381FF3395E0FEEF24D0FFEE3442
:10069A00FFFE90023AE02FF0900239E03EF090021D
:1006AA0033E475F00112040D80A3120381249D70B6
:1006BA00030207AA24F4604624FC70030207CD242F
:1006CA00FE606824FD7003020762241460030207B7
:1006DA00F0900236E475F00212040D900235E0FB48
:1006EA00A3E0FAA3E024FEF9EA34FFFA120439FF80
:1006FA00AEF0EE3395E0FDFC90023FE480549002A8
:10070A0036E475F00212040D900235E0FBA3E0FA1C
:10071A00A3E024FEF9EA34FFFA120439FFAEF0E44A
:10072A00FCFD90023FF0A374088058900236E475ED
:10073A00F00212040D900235E0FBA3E0FAA3E024D4
:10074A00FEF9EA34FFFA120439FFAEF0E4FCFD9038
:10075A00023FF0A3740A802B900236E475F002126D
:10076A00040D900235E0FBA3E0FAA3E024FEF9EAC7
:10077A0034FFFA120439FFAEF0E4FCFD90023FF0B8
:10078A00A37410F0900238E0900241F0900239E030
:10079A00FBA3E0900242CBF0A3EBF0120A17805CB5
:1007AA00900236E475F00212040D900235E0FBA3C4
:1007BA00E0FAA3E024FEF9EA34FFFA120439FFAEA4
:1007CA00F08036900236E475F00412040D9002357A
:1007DA00E0FBA3E0FAA3E024FCF9EA34FFFA1205ED
:1007EA00A212109A8016900232E0FBA3E0FAA3E06C
:1007FA00F9120381FF3395E0FE1213F8900233E4F5
:0C080A0075F00112040D020605E4FEFF6B
:0108160022BF
:0B0FCA00900204EBF0A3EAF0A3E9F0B2
:100FD50090022F7401F0A37402F0A37408F090023C
:100FE5002FE0F9A3E0FAA3E0900235C9F0A3EAF0F7
:100FF500A3E9F0900204E0FBA3E0FAA3E0F91205EF
:0C100500EF90022FE4F0A3F0A3F0FEFF38
:0110110022BC
:10124A00D3EF9400EE9400400F7D187C55DCFEDD50
:08125A00FAEF1F70EB1E80E8A3
:011262002269
:1013090012001E7FE87E0312124A1213FF7FE87E45
:041319000302124A6F
:0912060042029000004102920036
:1011A600900291E004F07006900290E004F0900244
:1011B60090E0B4030EA3E0B4E809E4900290F0A333
:0311C600F0B2B5CF
:0111C9002203
:1011CA00900292E0FF6008758AE0758CB18006751E
:1011DA008AC0758C63EF70047F0180027F009002E1
:0311EA0092EFF091
:0111ED0022DF
:101263007DF47C01E4FF1212107BFF7A1179CAE44A
:09127300FF121136E4FF02136FB3
:0D13890048456C6C6F2053746321212100D6
:10127C00D3EF9400EE9400400F7D187C55DCFEDD1E
:08128C00FAEF1F70EB1E80E871
:011294002237
:101295007F807E25120EC27BFF7A1379891210D0CA
:0912A5007FE87E0312127C80EE4A
:03140500B2B5225B
:10133000C2027F011213427BFF7A1479057F0102FA
:0213400013D1C7
:1008170000000000000000000000000000000000D1
:1008270000000000000000000000000000000000C1
:1008370000000000000000000000000000000000B1
:1008470000000000000000000000000000000000A1
:100857000000000000000000000000000000000091
:100867000000000000000000000000000000000081
:100877000000000000000000000000000000000071
:100887000000000000000000000000000000000061
:100897000000000000000000000000000000000051
:1008A7000000000000000000000000000000000041
:1008B7000000000000000000000000000000000031
:1008C7000000000000000000000000000000000021
:1008D7000000000000000000000000000000000011
:1008E7000000000000000000000000000000000001
:1008F70000000000000000000000000000000000F1
:1009070000000000000000000000000000000000E0
:1009170000000000000000000000000000000000D0
:1009270000000000000000000000000000000000C0
:1009370000000000000000000000000000000000B0
:1009470000000000000000000000000000000000A0
:100957000000000000000000000000000000000090
:100967000000000000000000000000000000000080
:100977000000000000000000000000000000000070
:100987000000000000000000000000000000000060
:100997000000000000000000000000000000000050
:1009A7000000000000000000000000000000000040
:1009B7000000000000000000000000000000000030
:1009C7000000000000000000000000000000000020
:1009D7000000000000000000000000000000000010
:1009E7000000000000000000000000000000000000
:1009F70000000000000000000000000000000000F0
:100A070000000000000000000000000000000000DF
:1012AE00D3EF9400EE9400400F7D187C55DCFEDDEC
:0812BE00FAEF1F70EB1E80E83F
:0112C6002205
:100BA80078007C007D017BFF7A0879177E027F0040
:100BB80012035B7D807C25E4FF1213C67F007E5004
:100BC800120F815003020CA2E4900200F0A3F090EF
:100BD8000200E0FEA3E0FD2400F58274003EF583E8
:100BE800EDF0900201E004F07006900200E004F0DD
:100BF800900200E0B402D8A3E0B400D37B017A00ED
:100C080079009002787402F0A3E4F0FF7E50120D90
:100C1800FBE4900200F0A3F0900200E0FEA3E0FFE6
:100C2800C3EE64809482501C74002FF58274003ED9
:100C3800F583E4F0900201E004F070DC900200E03B
:100C480004F080D47B017A00790090026F7402F07E
:100C5800A3E4F0FF7E50120D2FE4900200F0A3F001
:100C6800900200E0FEA3E0FFC3EE64809482501F70
:100C780074002FF58274003EF583E0FF12000390A4
:100C88000201E004F070D9900200E004F080D1B2D3
:0A0C9800B57FF47E011212AE80F564
:010CA200222F
:05000E0025640D0A004D
:1012C700D3EF9400EE9400400F7D187C55DCFEDDD3
:0812D700FAEF1F70EB1E80E826
:0112DF0022EC
:100F2300E4900202F0A3F07D807C25FF1213C6E457
:100F3300FF121103900202EEF0A3EFF0FDAC06E402
:100F43001201D1E4FBFA79FA7843120026E4FBFAA2
:100F53007980784412012F12020A900202EEF0A364
:100F6300EFF07BFF7A00790E900207EEF0A3EFF02B
:0E0F7300120FCAB2B57FF47E011212C780B110
:05001600120F2380FE23
:10002600EC4D6011E8497017ED33EC3304600DE4D4
:10003600FCFFFEFD22E933E8330470F80202761273
:10004600024158046009E4CC248150062850090274
:10005600028028400302027DC0E0EB4A7044B9806A
:1000660006D0E0FB02026CEF4E701CBD8008EBFF71
:10007600EAFEE9FD80EBE98DF0A4FEE5F002010F52
:10008600E9CDF9EAFEEBFFEF89F0A4FCE5F0CE89B5
:10009600F0A42EFFE435F0CD89F0A42DFEE435F072
:1000A6008067EF4E7005BD80D780C3EF8BF0A4ACA0
:1000B600F0EE8BF0A42CFCE435F0F8EF8AF0A42CDB
:1000C600E5F038FCE433CB8DF0A42CFCE5F03BF8EE
:1000D600EE8AF0A42CFCE5F038F8E433CF89F0A4DE
:1000E6002CFCE5F038CF3400CE89F0A42FFFE5F0E4
:1000F6003EFEE433C98DF0A42EFEE5F039CD8AF03C
:10010600A42FFFE5F03EFEE43DFD33D0E0FB5007B3
:100116000BBB000F020280EC2CFCEF33FFEE33FE2C
:06012600ED33FD0202585A
:10012C00020280EC5D046005E8590470030202765B
:10013C00120241580460F6EC4860F2EC7004FDFECB
:10014C00FF22C860DB2481C85009C39860025006A6
:10015C0002027D9850CAF582E9294B4A7005AB82A0
:10016C0002026C75F0007C1A7880C3EF9BEE9AED5E
:10017C0099400DC3EF9BFFEE9AFEED99FDE842F01E
:10018C00DC23ACF0D0E0FFD0E0FED0E0FDAB822071
:10019C00E7101BEB60BAEC2CFCEF33FFEE33FEEDFB
:1001AC0033FD020258E803F830E705C0F075F000A3
:1001BC00EF2FFFEE33FEED33FD40B830E7C280AADF
:1001CC0075F020800E75F010800575F0087D007EAE
:1001DC00007F003392D530D503120532EC3340103A
:1001EC00EF33FFEE33FEED33FDEC33FCD5F0ED22B7
:0E01FC00E5F0247EA2D513CC92E7CDCEFF22F3
:10020A00EDD2E7CD33EC3392D524814006E4FFFEEC
:10021A00FDFC22FCE4CFCECDCC24E0501174FF804B
:10022A00EDC3CC13CCCD13CDCE13CECF13CF0470E8
:07023A00F030D5DE020532B1
:10024100E9D2E7C933E833F892D5EDD2E7CD33EC03
:0702510033FC5002B2D5227C
:10025800EC30E7100FBF000C0EBE00080DBD000407
:100268000BEB6014A2D5EB13FCED92E7FD2274FFB3
:10027800FCFDFEFF22E480F8A2D574FF13FC7D800C
:03028800E480EF20
:03000000020CA34C
:0C0CA300787FE4F6D8FD758120020CEA91
:10028B00E709F608DFFA8046E709F208DFFA803E55
:10029B0088828C83E709F0A3DFFA8032E309F60842
:1002AB00DFFA8078E309F208DFFA807088828C83AA
:1002BB00E309F0A3DFFA806489828A83E0A3F6085E
:1002CB00DFFA805889828A83E0A3F208DFFA804C38
:1002DB0080D280FA80C680D4806980F2803380100F
:1002EB0080A680EA809A80A880DA80E280CA803378
:1002FB0089828A83ECFAE493A3C8C582C8CCC583F0
:10030B00CCF0A3C8C582C8CCC583CCDFE9DEE780BF
:10031B000D89828A83E493A3F608DFF9ECFAA9F03E
:10032B00EDFB2289828A83ECFAE0A3C8C582C8CC94
:10033B00C583CCF0A3C8C582C8CCC583CCDFEADEAD
:10034B00E880DB89828A83E493A3F208DFF980CC0F
:10035B0088F0EF60010E4E60C388F0ED2402B40408
:10036B000050B9F582EB2402B4040050AF232345AF
:06037B0082239002DB73F7
:10038100BB010689828A83E0225002E722BBFE027A
:09039100E32289828A83E49322AD
:10039A00BB010CE58229F582E5833AF583E0225018
:1003AA0006E92582F8E622BBFE06E92582F8E22262
:0D03BA00E58229F582E5833AF583E493227C
:1003C700BB010689828A83F0225002F722BBFE0115
:0203D700F3220F
:1003D900F8BB010DE58229F582E5833AF583E8F05A
:1003E900225006E92582C8F622BBFE05E92582C806
:0203F900F222EE
:1003FB00EF8DF0A4A8F0CF8CF0A428CE8DF0A42E16
:02040B00FE22CF
:10040D00C5F0F8A3E028F0C5F0F8E582158270027A
:06041D001583E038F02217
:10042300A3F8E0C5F025F0F0E5821582700215838C
:06043300E0C838F0E822E9
:10043900BB010A89828A83E0F5F0A3E0225006878E
:10044900F009E71922BBFE07E3F5F009E319228950
:0B045900828A83E493F5F07401932283
:1004640075F008758200EF2FFFEE33FECD33CDCC4F
:1004740033CCC58233C5829BED9AEC99E5829840D2
:100484000CF582EE9BFEED9AFDEC99FC0FD5F0D6AF
:10049400E4CEFBE4CDFAE4CCF9A88222B800C1B9D9
:1004A4000059BA002DEC8BF084CFCECDFCE5F0CB17
:1004B400F97818EF2FFFEE33FEED33FDEC33FCEB50
:1004C40033FB10D703994004EB99FB0FD8E5E4F90B
:1004D400FA227818EF2FFFEE33FEED33FDEC33FCF8
:1004E400C933C910D7059BE99A4007EC9BFCE99AEC
:1004F400F90FD8E0E4C9FAE4CCFB2275F010EF2F31
:10050400FFEE33FEED33FDCC33CCC833C810D70730
:100514009BEC9AE899400AED9BFDEC9AFCE899F86B
:0E0524000FD5F0DAE4CDFBE4CCFAE4C8F922FE
:10105600C2D5E830E70FB2D5E4C39BFBE49AFAE4C5
:1010660099F9E498F8EC30E717B2D512108C12040F
:10107600A0E4C39BFBE49AFAE499F9E498F88003A8
:101086001204A030D50DE4C39FFFE49EFEE49DFD4F
:04109600E49CFC22B8
:0E053200C3E49FFFE49EFEE49DFDE49CFC22DA
:10054000EB9FF5F0EA9E42F0E99D42F0E89C45F011
:010550002288
:10055100E86010ECA2E713FCED13FDEE13FEEF13C0
:04056100FFD8F022AD
:0C056500ECF0A3EDF0A3EEF0A3EFF02209
:10057100A8828583F0D083D0821205881205881263
:100581000588120588E473E493A3C583C5F0C58388
:10059100C8C582C8F0A3C583C5F0C583C8C582C8D4
:0105A1002237
:1005A200BB010789828A830205D15005E9F8020559
:1005B200C8BBFE05E9F80205DA89828A830205E3EF
:0605C2008A838982E473C4
:100CAF00020016E493A3F8E493A34003F68001F245
:100CBF0008DFF48029E493A3F85407240CC8C33346
:100CCF00C4540F4420C8834004F456800146F6DF15
:100CDF00E4800B01020408102040809011EEE47EA6
:100CEF00019360BCA3FF543F30E509541FFEE4930A
:100CFF00A360010ECF54C025E060A840B8E493A3D1
:100D0F00FAE493A3F8E493A3C8C582C8CAC583CAFB
:100D1F00F0A3C8C582C8CAC583CADFE9DEE780BEB3
:01120F0000DE
:0905C800E6FB08E6FA08E6F92258
:0905D100E0FBA3E0FAA3E0F9222B
:0905DA00E2FB08E2FA08E2F92252
:0C05E300E493FB740193FA740293F92274
:00000001FF
