:03001600C2B5224E
:03001E00D2B52236
:100ECD00900283ECF0A3EDF0EF9002837008E0FE4A
:0F0EDD00A3E0FF020B2CE0FEA3E0FF120BF622B6
:0D0FE500EF7005D2AFD28C22D2AFD28E2297
:09105C00EF7003C28C22C28E2247
:100DF30090026EEBF0A3EAF0A3E9F0EF90026E70BD
:100E03000BE0FBA3E0FAA3E0F902100CE0FBA3E084
:080E1300FAA3E0F91210182205
:0B103C00EF7007AE04AF05120C592244
:100DC000900271EBF0A3EAF0A3E9F0900271E0FB6E
:100DD000A3E0FAA3E0F912011C6017900271A3E4EA
:100DE00075F0011201BEA9F0FA12011CFF120003F6
:030DF00080D92285
:0F0FB800EF600BEFB40107A20292031210652243
:0B104700EF6007EFB401031210242239
:100AC600900202EEF0A3EFF0A3EBF0A3EAF0A3E9A5
:010AD600F02F
:100AD700E4900209F0A3F0900207E0FEA3E0FFA371
:100AE700E0FCA3E0FDC39FEC9E5039900203E02D8C
:100AF700FF900202E03CFE120FD6900204E0FBA337
:100B0700E0FAA3E0F9900209E0FCA3E0F5828C8308
:100B1700EF12017490020AE004F070BB900209E042
:040B270004F080B3A3
:010B2B0022A7
:100B9200900202EEF0A3EFF0A3EBF0A3EAF0A3E9D8
:010BA200F062
:100BA300E4900209F0A3F0900207E0FEA3E0FFA3A4
:100BB300E0FCA3E0FDC39FEC9E5037900203E02DC1
:100BC300FF900202E03CFE900204E0FBA3E0FAA3E4
:100BD300E0F9900209A3E0F5828C83120135FD123E
:100BE3000F6990020AE004F070BD900209E004F07E
:020BF30080B5CB
:010BF50022DD
:0310750002103036
:100B2C00900285EEF0A3EFF0438E805389F0758F21
:100B3C0001E025E0FF900285E033AB07FAE4F9F819
:100B4C00FF7E367D6E7C01120D46C3E49FFF8F8ABB
:100B5C00900286E025E0FF900285E033AB07FAE4D3
:100B6C00F9F8FF7E367D6E7C01120D46C3E49FFFC3
:100B7C00E49EFE74019DFDE49CFC78081202EC8F4F
:060B8C008CC28DD2A922EB
:0C100C00900274EBF0A3EAF0A3E9F022DC
:03000B00020E1BC7
:100E1B00C0E0C0F0C083C082C0D075D0089002740F
:100E2B00A3E0FAA3E0F912035DD0D0D082D083D037
:040E3B00F0D0E032E1
:100BF600900287EEF0A3EFF0438E4053890FE02575
:100C0600E0FF900287E033AB07FAE4F9F8FF7E369F
:100C16007D6E7C01120D46C3E49FFF8F8B90028888
:100C2600E025E0FF900287E033AB07FAE4F9F8FF2E
:100C36007E367D6E7C01120D46C3E49FFFE49EFE68
:100C460074019DFDE49CFC78081202EC8F8DC28F26
:030C5600D2AB22FC
:0C101800900277EBF0A3EAF0A3E9F022CD
:03001B00020E3F93
:100E3F00C0E0C0F0C083C082C0D075D018900277D8
:100E4F00A3E0FAA3E0F912035DD0D0D082D083D013
:040E5F00F0D0E032BD
:050EAB00420289000075
:100C5900900202EEF0A3EFF0759850438E01438E97
:100C690004900202E0FEA3E0FBAA06E4F9F87F8003
:100C79007E8D7D5BFC120D46EFF404F5D7900202E0
:100C8900E0FEA3E0FBAA06E4F9F87F807E8D7D5B98
:100C9900FC120D46C3E49FFFE49EFE74019DFDE432
:100CA9009CFC78081202EC8FD6438E10D2AFD2ACDE
:010CB9002218
:03002300020FC702
:0E0FC700309804C298C200309904C299C20149
:010FD50032E9
:080003002001FDD2018F9922BA
:0A105200D2002000FDAF997E0022BD
:09106500A203928AD2AAD2AF22A2
:0C10240090027AEBF0A3EAF0A3E9F022BE
:03001300020D02D9
:100D0200C0E0C0F0C083C082C0D075D000C000C0B7
:100D120001C002C003C004C005C006C00790027A29
:100D2200A3E0FAA3E0F912035DD007D006D005D004
:100D320004D003D002D001D000D0D0D082D083D052
:040D4200F0D0E032DB
:0D0F7E008FC4EEF5C375C65A75C6A57F0A6F
:070F8B00AE071FEE70FA2211
:0D0FF200E4F5C7F5C5F5C675C380F5C4224A
:0E0FD60075C78175C501120F7EAFC2120FF2F2
:010FE40022EA
:100F690075C78175C5028FC4EEF5C3AF058FC2126F
:050F79000F83020FF2DE
:0C10300075C78175C503120F7E020FF218
:100EB0005002553031323334353637383961626358
:030EC00064656600
:07106E00120003E4FEFF2263
:100D8A0090027DEBF0A3EAF0A3E9F090027DE0FB8C
:100D9A00A3E0FAA3E0F912011C601790027DA3E414
:100DAA0075F0011201BEA9F0FA12011CFF1200032C
:060DBA0080D9E4FEFF22D7
:0607B20090023912030061
:1007B80090024212030C0000000090024E7401F0F7
:1007C800A37402F0A3744EF0E4A3F0A3F0A3F0A383
:1007D800F090024EE0FBA374FFF5F01201A8A9F017
:1007E800FAE4120162900239E0FCA3E0FDA3E0FE06
:1007F800A3E0FFEC339002395009A3A3A3E012024F
:10080800CD800BE0FCA3E0FDA3E0FEA3E0FF900297
:100818004212030090023DE0FEA3E0FBAA06EA3381
:1008280095E0F9F8900242E0FCA3E0FDA3E0FEA306
:10083800E0FF12023B74552BF58274023AF583E00F
:10084800FF90024EE0FBA374FFF5F01201A8A9F097
:10085800FAEF120162900252E004F0700690025121
:10086800E004F0900242E0FCA3E0FDA3E0FEA3E078
:10087800FFC006C00790023DE0FEA3E0FBAA06EA1F
:100888003395E0F9F8D007D00612023B90024212E5
:100898000300E4FBFAF9F8C31202DB600302081C48
:1008A800900240E0FEA3E0FF4E605A900251E0FC47
:1008B800A3E0FDC39FEE6480F8EC6480985046C3C3
:1008C800900241E09DFE900240E09C900253F0A30C
:1008D800CEF0900253E07002A3E0602990023FE05E
:1008E800FF90024EE0FBA374FFF5F01201A8A9F0F7
:1008F800FAEF120162900254E024FFF0900253E0F4
:1009080034FFF080CD900239E0FCA3E0FDA3E0FEC7
:10091800A3E0FFEC33501590024EE0FBA374FFF503
:10092800F01201A8A9F0FA742D12016290024EE0AB
:0A093800FBA3E0FAA3E0F9120D8A18
:010942002292
:0B038A00900265EBF0A3EAF0A3E9F09D
:1003950090026B7420F0E4A3F0A3F0900265E0FBFB
:1003A500A3E0FAA3E0F912011CFF70030205AE6495
:1003B500256004EF02059A900266E475F0011201CA
:1003C500A8900265E0FBA3E0FAA3E0F912011CB4D2
:1003D500301090026B7430F0900266E475F00112F3
:1003E50001A890026B7420F0E4A3F0A3F0900265DD
:1003F500E0FBA3E0FAA3E0F912011CFFC3648094BB
:10040500B04047D3EF648094B9503F90026CE0FE52
:10041500A3E0FF7C007D0A12019690026CEEF0A32A
:10042500EFF012011CFF3395E0FEEF24D0FFEE3410
:10043500FFFE90026DE02FF090026CE03EF090021E
:1004450066E475F0011201A880A312011C249D70B9
:100455000302054524F4604624FC70030205682464
:10046500FE606824FD70030204FD24146003020588
:100475008B900269E475F0021201A8900268E0FB16
:10048500A3E0FAA3E024FEF9EA34FFFA1201D4FF4F
:10049500AEF0EE3395E0FDFC90023DE48054900211
:1004A50069E475F0021201A8900268E0FBA3E0FA86
:1004B500A3E024FEF9EA34FFFA1201D4FFAEF0E41A
:1004C500FCFD90023DF0A374088058900269E47524
:1004D500F0021201A8900268E0FBA3E0FAA3E02471
:1004E500FEF9EA34FFFA1201D4FFAEF0E4FCFD9008
:1004F500023DF0A3740A802B900269E475F00212A4
:1005050001A8900268E0FBA3E0FAA3E024FEF9EA63
:1005150034FFFA1201D4FFAEF0E4FCFD90023DF089
:10052500A37410F090026BE090023FF090026CE033
:10053500FBA3E0900240CBF0A3EBF01207B2805C86
:10054500900269E475F0021201A8900268E0FBA32D
:10055500E0FAA3E024FEF9EA34FFFA1201D4FFAE73
:10056500F08036900269E475F0041201A8900268E3
:10057500E0FBA3E0FAA3E024FCF9EA34FFFA120356
:100585003D120D8A8016900265E0FBA3E0FAA3E018
:10059500F912011CFF3395E0FE12106E900266E41D
:0C05A50075F0011201A80203A0E4FEFFA3
:0105B1002227
:0B0CBA0090020BEBF0A3EAF0A3E9F0BE
:100CC5009002367401F0A37402F0A3740FF0900241
:100CD50036E0F9A3E0FAA3E0900268C9F0A3EAF0D0
:100CE500A3E9F090020BE0FBA3E0FAA3E0F91203FD
:0C0CF5008A900236E4F0A3F0A3F0FEFFAA
:010D010022CF
:100EEC00D3EF9400EE9400400F7D187C55DCFEDDB2
:080EFC00FAEF1F70EB1E80E805
:010F040022CA
:100F92001200167FE87E03120EEC12001E7FE87E1E
:040FA20003020EEC4C
:090EC3004202800000410282009D
:100E6300900281E004F07006900280E004F09002AA
:100E730080E0B4030EA3E0B4E809E4900280F0A399
:030E8300F0B2B515
:010E86002249
:100E8700900282E0FF6008758AE0758CB180067574
:100E97008AC0758C63EF70047F0180027F00900227
:030EA70082EFF0E7
:010EAA002225
:100F05007DF47C01E4FF120ECD7BFF7A0E7987E438
:090F1500FF120DF3E4FF020FE5E9
:0D0FFF0048456C6C6F205374632121210064
:100F1E00D3EF9400EE9400400F7D187C55DCFEDD7F
:080F2E00FAEF1F70EB1E80E8D2
:010F36002298
:100F37007F807E25120C597BFF7A0F79FF120DC037
:090F47007FE87E03120F1E80EE0C
:03107800B2B522EC
:100FA600C2027F01120FB87BFF7A1079787F0102A7
:020FB6001047E2
:1005B2000000000000000000000000000000000039
:1005C2000000000000000000000000000000000029
:1005D2000000000000000000000000000000000019
:1005E2000000000000000000000000000000000009
:1005F20000000000000000000000000000000000F9
:1006020000000000000000000000000000000000E8
:1006120000000000000000000000000000000000D8
:1006220000000000000000000000000000000000C8
:1006320000000000000000000000000000000000B8
:1006420000000000000000000000000000000000A8
:100652000000000000000000000000000000000098
:100662000000000000000000000000000000000088
:100672000000000000000000000000000000000078
:100682000000000000000000000000000000000068
:100692000000000000000000000000000000000058
:1006A2000000000000000000000000000000000048
:1006B2000000000000000000000000000000000038
:1006C2000000000000000000000000000000000028
:1006D2000000000000000000000000000000000018
:1006E2000000000000000000000000000000000008
:1006F20000000000000000000000000000000000F8
:1007020000000000000000000000000000000000E7
:1007120000000000000000000000000000000000D7
:1007220000000000000000000000000000000000C7
:1007320000000000000000000000000000000000B7
:1007420000000000000000000000000000000000A7
:100752000000000000000000000000000000000097
:100762000000000000000000000000000000000087
:100772000000000000000000000000000000000077
:100782000000000000000000000000000000000067
:100792000000000000000000000000000000000057
:1007A2000000000000000000000000000000000047
:100F5000D3EF9400EE9400400F7D187C55DCFEDD4D
:080F6000FAEF1F70EB1E80E8A0
:010F68002266
:1009430078007C007D017BFF7A0579B27E027F000F
:100953001200F67D807C25E4FF12103C7F487E2048
:10096300121075E4900200F0A3F0900200E0FEA3E1
:10097300E0FD2400F58274003EF583EDF090020162
:10098300E004F07006900200E004F0900200E0B48E
:1009930002D8A3E0B400D37B017A00790090020768
:1009A3007402F0A3E4F07F487E20120B92E49002DD
:1009B30000F0A3F0900200E0FEA3E0FFC3EE64802A
:1009C3009482501C74002FF58274003EF583E4F08A
:1009D300900201E004F070DC900200E004F080D4A7
:1009E3007B017A0079009002077402F0A3E4F07FA0
:1009F300487E20120AC6E4900200F0A3F0900200A1
:100A0300E0FEA3E0FFC3EE64809482501F74002FC6
:100A1300F58274003EF583E0FF120003900201E0CB
:100A230004F070D9900200E004F080D1B2B57FF4F5
:070A33007E01120F5080F557
:05000E0012094380FE11
:03000000020A3AB7
:0C0A3A00787FE4F6D8FD758120020A8167
:10002600E709F608DFFA8046E709F208DFFA803EBC
:1000360088828C83E709F0A3DFFA8032E309F608A9
:10004600DFFA8078E309F208DFFA807088828C8311
:10005600E309F0A3DFFA806489828A83E0A3F608C5
:10006600DFFA805889828A83E0A3F208DFFA804C9F
:1000760080D280FA80C680D4806980F28033801076
:1000860080A680EA809A80A880DA80E280CA8033DF
:1000960089828A83ECFAE493A3C8C582C8CCC58357
:1000A600CCF0A3C8C582C8CCC583CCDFE9DEE78027
:1000B6000D89828A83E493A3F608DFF9ECFAA9F0A6
:1000C600EDFB2289828A83ECFAE0A3C8C582C8CCFC
:1000D600C583CCF0A3C8C582C8CCC583CCDFEADE15
:1000E600E880DB89828A83E493A3F208DFF980CC77
:1000F60088F0EF60010E4E60C388F0ED2402B40470
:100106000050B9F582EB2402B4040050AF23234516
:06011600822390007673C5
:10011C00BB010689828A83E0225002E722BBFE02E1
:09012C00E32289828A83E4932214
:10013500BB010CE58229F582E5833AF583E022507F
:1001450006E92582F8E622BBFE06E92582F8E222C9
:0D015500E58229F582E5833AF583E49322E3
:10016200BB010689828A83F0225002F722BBFE017C
:02017200F32276
:10017400F8BB010DE58229F582E5833AF583E8F0C1
:10018400225006E92582C8F622BBFE05E92582C86D
:02019400F22255
:10019600EF8DF0A4A8F0CF8CF0A428CE8DF0A42E7D
:0201A600FE2237
:1001A800C5F0F8A3E028F0C5F0F8E58215827002E2
:0601B8001583E038F0227F
:1001BE00A3F8E0C5F025F0F0E582158270021583F4
:0601CE00E0C838F0E82251
:1001D400BB010A89828A83E0F5F0A3E022500687F6
:1001E400F009E71922BBFE07E3F5F009E3192289B8
:0B01F400828A83E493F5F074019322EB
:1001FF0075F008758200EF2FFFEE33FECD33CDCCB7
:10020F0033CCC58233C5829BED9AEC99E582984039
:10021F000CF582EE9BFEED9AFDEC99FC0FD5F0D616
:10022F00E4CEFBE4CDFAE4CCF9A88222B800C1B940
:10023F000059BA002DEC8BF084CFCECDFCE5F0CB7E
:10024F00F97818EF2FFFEE33FEED33FDEC33FCEBB7
:10025F0033FB10D703994004EB99FB0FD8E5E4F972
:10026F00FA227818EF2FFFEE33FEED33FDEC33FC5F
:10027F00C933C910D7059BE99A4007EC9BFCE99A53
:10028F00F90FD8E0E4C9FAE4CCFB2275F010EF2F98
:10029F00FFEE33FEED33FDCC33CCC833C810D70798
:1002AF009BEC9AE899400AED9BFDEC9AFCE899F8D3
:0E02BF000FD5F0DAE4CDFBE4CCFAE4C8F92266
:100D4600C2D5E830E70FB2D5E4C39BFBE49AFAE4D8
:100D560099F9E498F8EC30E717B2D5120D7C120237
:100D66003BE4C39BFBE49AFAE499F9E498F8800320
:100D760012023B30D50DE4C39FFFE49EFEE49DFDC9
:040D8600E49CFC22CB
:0E02CD00C3E49FFFE49EFEE49DFDE49CFC2242
:1002DB00EB9FF5F0EA9E42F0E99D42F0E89C45F079
:0102EB0022F0
:1002EC00E86010ECA2E713FCED13FDEE13FEEF1328
:0402FC00FFD8F02215
:0C030000ECF0A3EDF0A3EEF0A3EFF02270
:10030C00A8828583F0D083D0821203231203231298
:10031C000323120323E473E493A3C583C5F0C583BD
:10032C00C8C582C8F0A3C583C5F0C583C8C582C83B
:01033C00229E
:10033D00BB010789828A8302036C5005E9F8020329
:10034D0063BBFE05E9F802037589828A8302037E89
:06035D008A838982E4732B
:100A460002000EE493A3F8E493A34003F68001F2B8
:100A560008DFF48029E493A3F85407240CC8C333B1
:100A6600C4540F4420C8834004F456800146F6DF80
:100A7600E4800B0102040810204080900EABE47E57
:100A8600019360BCA3FF543F30E509541FFEE49375
:100A9600A360010ECF54C025E060A840B8E493A33C
:100AA600FAE493A3F8E493A3C8C582C8CAC583CA67
:100AB600F0A3C8C582C8CAC583CADFE9DEE780BE1F
:010ECC000025
:09036300E6FB08E6FA08E6F922BF
:09036C00E0FBA3E0FAA3E0F92292
:09037500E2FB08E2FA08E2F922B9
:0C037E00E493FB740193FA740293F922DB
:00000001FF
